S00B000044494F2E737265633D
S11300000C942A000C943F000C943F000C943F0085
S11300100C943F000C943F000C943F000C943F0060
S11300200C943F000C943F000C943F000C943F0050
S11300300C943F000C943F000C943F000C943F0040
S11300400C943F000C943F000C943F000C943F0030
S11300500C943F0011241FBECFE5D8E0DEBFCDBF16
S113006010E0A0E6B0E0E6EAF8E002C005900D92E8
S1130070A83CB107D9F70E9444020C9451040C9493
S1130080000041E064E081E00E94E10241E065E0BB
S113009081E00E94E10241E066E081E00E94E10229
S11300A041E067E081E00E94E10240E063E082E039
S11300B00E94E10240E064E082E00E94E10240E04C
S11300C065E082E00E94E10240E066E082E00E9496
S11300D0E10263E082E00E94100464E082E00E9496
S11300E0100465E082E00E94100466E082E00E9451
S11300F0100408956F927F928F929F92AF92BF9255
S1130100CF92DF92EF92FF920F931F93CF93DF93DF
S1130110CDB7DEB7A1970FB6F894DEBF0FBECDBF43
S1130120009709F480C05C0181E08D8F8E8F8F8FE2
S113013088A334E0398F25E02A8F96E09B8F87E0EF
S11301408C8F82E08D8B8E8B8F8B888F83E0898B55
S11301503A8B2B8B9C8B80E1E0E6F0E0DE0111967C
S113016001900D928A95E1F78FEFF5018083812C40
S113017056C0C82CD12CE9E1F0E0EC0FFD1FEC0DCA
S1130180FD1D6080EDE1F0E0EC0FFD1FEC0DFD1DA9
S1130190708040E0662D872D0E94580310E037C020
S11301A0E12EF12CE1E1F0E0EC0FFD1FEE0DFF1D5F
S11301B00081E5E1F0E0EC0FFD1FEE0DFF1D9080E6
S11301C0AE014F5D5F4F602F892D0E94D50389A139
S11301D081111CC007C0AE014F5D5F4F602F892D98
S11301E00E94D50389A18823B1F3EE0CFF1CEE0C09
S11301F0FF1C81E090E08C0F9D1FE80EF91EF701B3
S1130200EC0DFD1D8081F50180830DC01F5F14304E
S113021038F241E0662D872D0E9458038394F3E061
S1130220F81508F0A6CFA1960FB6F894DEBF0FBE5E
S1130230CDBFDF91CF911F910F91FF90EF90DF9091
S1130240CF90BF90AF909F908F907F906F900895C4
S1130250CF93C82F80FF06C041E064E080E00E9495
S1130260580305C040E064E080E00E945803C1FFE9
S113027006C041E065E080E00E94580305C040E00C
S113028065E080E00E945803C2FF06C041E066E0DA
S113029080E00E94580305C040E066E080E00E94D0
S11302A05803C3FF06C041E067E080E00E945803A2
S11302B005C040E067E080E00E945803CF910895B4
S11302C0CF93C82F40E061E081E00E94580340E0F2
S11302D062E081E00E9458038C2F82958F700E9407
S11302E0280141E063E081E00E9458038FE99FE028
S11302F00197F1F700C0000040E063E081E00E9454
S113030058038C2F0E94280141E063E081E00E94A1
S113031058038FE99FE00197F1F700C0000040E027
S113032063E081E00E945803CF91089541E061E0C9
S113033081E00E94E10241E062E081E00E94E1028A
S113034041E063E081E00E94E10241E064E080E09A
S11303500E94E10241E065E080E00E94E10241E0A8
S113036066E080E00E94E10241E067E080E00E94F4
S1130370E1022FE785EB91E0215080409040E1F7C6
S113038000C0000040E061E081E00E94580340E0CA
S113039062E081E00E94580382E00E94280141E06B
S11303A063E081E00E9458038FE99FE00197F1F731
S11303B000C0000040E063E081E00E94580388E24E
S11303C00E94600190EF9A95F1F78FE00E9460011E
S11303D020EF2A95F1F781E00E9460018FE39FE10D
S11303E00197F1F700C0000086E00E9460010895C3
S11303F0CF93C82F41E061E081E00E94580340E0C0
S113040062E081E00E9458038C2F82958F700E94D5
S1130410280141E063E081E00E9458038FE99FE0F6
S11304200197F1F700C0000040E063E081E00E9422
S113043058038C2F0E94280141E063E081E00E9470
S113044058038FE99FE00197F1F700C0000040E0F6
S113045063E081E00E945803CF9108950F931F93A6
S1130460CF93009729F40CC00E94F801CF5F02C01B
S11304708C01C0E0F801EC0FF11D80818111F4CFF3
S1130480CF911F910F910895CF93DF93CDB7DEB72E
S11304902B970FB6F894DEBF0FBECDBF0E94960116
S11304A00E94410081E00E94600180E790E00E9488
S11304B02E0200E010E013C0CE010B960E947A00D9
S11304C08B858F3FC9F3E1E0F0E0EC0FFD1FE00FF7
S11304D0F11F80838AE20E94F8010F5F1F4F0430EE
S11304E0110554F31D8200E010E081E00E946001D8
S11304F08EE790E00E942E02E12CF12C14C0CE0174
S11305000B960E947A008B858F3FC9F3E6E0F0E0FA
S1130510EC0FFD1FEE0DFF1D80838AE20E94F8019F
S11305202FEFE21AF20A84E0E816F10444F31A8683
S1130530BE016A5F7F4FCE0101960E944804892B59
S113054041F481E00E9460018EE890E00E942E0256
S113055037C09FEFC91AD90A23E0C216D10444F068
S113056081E00E9460018BE990E00E942E0228C085
S113057081E00E9460010F5F1F4F0130110571F48B
S113058083EA90E00E942E028FEF97EA21E68150E1
S113059090402040E1F700C00000A7CF02301105D1
S11305A009F0A3CF84EB90E00E942E028FEF97EA2C
S11305B021E6815090402040E1F700C0000095CF33
S11305C0FFCF813019F130F08230E1F1833009F44A
S11305D054C00895442371F0413009F068C02AB32F
S11305E081E090E002C0880F991F6A95E2F7822BA0
S11305F08ABB08952AB381E090E002C0880F991F56
S11306006A95E2F7809582238ABB0895442371F0AA
S1130610413009F04CC027B381E090E002C0880F5C
S1130620991F6A95E2F7822B87BB089527B381E06F
S113063090E002C0880F991F6A95E2F780958223A3
S113064087BB0895442369F0413089F524B381E0E0
S113065090E002C0880F991F6A95E2F7822B84BB51
S1130660089524B381E090E002C0880F991F6A9531
S1130670E2F78095822384BB0895442369F04130D6
S1130680B1F423B381E090E002C0880F991F6A950A
S1130690E2F7822B83BB089523B381E090E002C08C
S11306A0880F991F6A95E2F78095822383BB08958A
S11306B0843008F079C0433008F076C0813019F1F5
S11306C030F08230E1F1833009F454C008954423BA
S11306D071F0413009F068C02BB381E090E002C0B2
S11306E0880F991F6A95E2F7822B8BBB08952BB371
S11306F081E090E002C0880F991F6A95E2F7809527
S113070082238BBB0895442371F0413009F04CC01F
S113071028B381E090E002C0880F991F6A95E2F740
S1130720822B88BB089528B381E090E002C0880F33
S1130730991F6A95E2F78095822388BB0895442324
S113074069F0413089F525B381E090E002C0880F5B
S1130750991F6A95E2F7822B85BB089525B381E042
S113076090E002C0880F991F6A95E2F78095822372
S113077085BB0895442369F04130B1F422B381E08C
S113078090E002C0880F991F6A95E2F7822B82BB22
S1130790089522B381E090E002C0880F991F6A9502
S11307A0E2F78095822382BB08958430C0F56830D7
S11307B0B0F54115510599F1813089F028F0823066
S11307C0C9F0833011F1089589B390E002C0959582
S11307D087956A95E2F78170FA018083089586B35C
S11307E090E002C0959587956A95E2F78170FA01C9
S11307F08083089583B390E002C0959587956A95A8
S1130800E2F78170FA018083089580B390E002C01A
S1130810959587956A95E2F78170FA01808308952A
S11308208430A8F5683098F5813089F028F082305A
S1130830C9F0833011F108952BB381E090E002C038
S1130840880F991F6A95E2F7822B8BBB089528B312
S113085081E090E002C0880F991F6A95E2F7822B2D
S113086088BB089525B381E090E002C0880F991FEA
S11308706A95E2F7822B85BB089522B381E090E06C
S113088002C0880F991F6A95E2F7822B82BB0895F4
S1130890FB01DC018D91019080190110D9F3990BB2
S10908A00895F894FFCF57
S11308A63738392F3435362A3132332D43303D2B00
S11308B65365742070617373776F72643A00456E82
S11308C67465722070617373776F72643A00446F53
S11308D66F72206F70656E656421004C6F636B6583
S11308E66421004F6E6520747269616C20706173B7
S11308F6736564005365636F6E6420747269616C1A
S10B0906207061737365640045
S9030000FC
