S013000053656375726564486F6D652E73726563BD
S11300000C942A000C943F000C943F000C943F0085
S11300100C943F000C943F000C943F000C943F0060
S11300200C943F000C943F000C943F000C943F0050
S11300300C943F000C943F000C943F000C943F0040
S11300400C943F000C943F000C943F000C943F0030
S11300500C943F0011241FBECFE5D8E0DEBFCDBF16
S113006010E0A0E6B0E0E6E3F3E102C005900D92F3
S1130070AC3EB107D9F70E9401040C9499090C9481
S1130080000041E00E941A05089541E00E94910594
S1130090089540E00E9491050895813079F441E08B
S11300A063E083E00E941A0541E062E083E00E947D
S11300B01A0541E066E083E00E941A050895813044
S11300C0F9F4613019F0623061F015C041E063E089
S11300D083E00E94910540E062E083E00E94910584
S11300E00AC040E063E083E00E94910541E062E0E1
S11300F083E00E94910541E066E083E00E9491055F
S11301000895813029F440E066E083E00E9491057F
S11301100895E199FECF9FBB8EBB6DBB8CB3846009
S11301208CBB8CB382608CBB08950F931F93CF93C9
S1130130DF93EB0107C021968C010F5F1F4F0E94D4
S11301408900C80168816111F6CF0E948900DF919E
S1130150CF911F910F910895CF93DF93C0E0D0E02A
S113016005C06FEFCE010E9489002196C11584E07D
S1130170D807B8F3DF91CF91089541E064E081E0BE
S11301800E941A0541E065E081E00E941A0541E001
S113019066E081E00E941A0541E067E081E00E9488
S11301A01A0540E063E082E00E941A0540E064E042
S11301B082E00E941A0540E065E082E00E941A0590
S11301C040E066E082E00E941A0563E082E00E945B
S11301D0490664E082E00E94490665E082E00E94EC
S11301E0490666E082E00E94490608956F927F9274
S11301F08F929F92AF92BF92CF92DF92EF92FF9233
S11302000F931F93CF93DF93CDB7DEB7A1970FB6AC
S1130210F894DEBF0FBECDBF009709F480C05C0127
S113022081E08D8F8E8F8F8F88A334E0398F25E006
S11302302A8F96E09B8F87E08C8F82E08D8B8E8B4C
S11302408F8B888F83E0898B3A8B2B8B9C8B80E1FF
S1130250E0E6F0E0DE01119601900D928A95E1F757
S11302608FEFF5018083812C56C0C82CD12CE9E195
S1130270F0E0EC0FFD1FEC0DFD1D6080EDE1F0E002
S1130280EC0FFD1FEC0DFD1D708040E0662D872DE9
S11302900E94910510E037C0E12EF12CE1E1F0E07D
S11302A0EC0FFD1FEE0DFF1D0081E5E1F0E0EC0F0A
S11302B0FD1FEE0DFF1D9080AE014F5D5F4F602F5F
S11302C0892D0E940E0689A181111CC007C0AE01B0
S11302D04F5D5F4F602F892D0E940E0689A18823F0
S11302E0B1F3EE0CFF1CEE0CFF1C81E090E08C0FD0
S11302F09D1FE80EF91EF701EC0DFD1D8081F5012F
S113030080830DC01F5F143038F241E0662D872DC5
S11303100E9491058394F3E0F81508F0A6CFA19606
S11303200FB6F894DEBF0FBECDBFDF91CF911F9102
S11303300F91FF90EF90DF90CF90BF90AF909F9080
S11303408F907F906F900895CF93C82F80FF06C041
S113035041E064E080E00E94910505C040E064E073
S113036080E00E949105C1FF06C041E065E080E0A5
S11303700E94910505C040E065E080E00E9491057F
S1130380C2FF06C041E066E080E00E94910505C01E
S113039040E066E080E00E949105C3FF06C041E0B2
S11303A067E080E00E94910505C040E067E080E0DE
S11303B00E949105CF910895CF93C82F40E061E04A
S11303C081E00E94910540E062E081E00E94910595
S11303D08C2F82958F700E94A40141E063E081E03C
S11303E00E9491058FE99FE00197F1F700C000009A
S11303F040E063E081E00E9491058C2F0E94A401FB
S113040041E063E081E00E9491058FE99FE001975C
S1130410F1F700C0000040E063E081E00E94910534
S1130420CF91089541E061E081E00E941A0541E026
S113043062E081E00E941A0541E063E081E00E94ED
S11304401A0541E064E080E00E941A0541E065E09D
S113045080E00E941A0541E066E080E00E941A05EF
S113046041E067E080E00E941A052FE785EB91E008
S1130470215080409040E1F700C0000040E061E07E
S113048081E00E94910540E062E081E00E949105D4
S113049082E00E94A40141E063E081E00E949105B2
S11304A08FE99FE00197F1F700C0000040E063E0AE
S11304B081E00E94910588E20E94DC0190EF9A9508
S11304C0F1F78FE00E94DC0120EF2A95F1F781E03B
S11304D00E94DC018FE39FE10197F1F700C0000067
S11304E086E00E94DC010895CF93C82F41E061E0CB
S11304F081E00E94910540E062E081E00E94910564
S11305008C2F82958F700E94A40141E063E081E00A
S11305100E9491058FE99FE00197F1F700C0000068
S113052040E063E081E00E9491058C2F0E94A401C9
S113053041E063E081E00E9491058FE99FE001972B
S1130540F1F700C0000040E063E081E00E94910503
S1130550CF9108950F931F93CF93009729F40CC064
S11305600E947402CF5F02C08C01C0E0F801EC0F5E
S1130570F11D80818111F4CFCF911F910F910895C6
S113058041E00E941A05089541E00E9491050895F2
S113059040E00E949105089541E065E083E00E94F7
S11305A01A050E9481060895682F70E0665A7F4FED
S11305B0072E000C880B990B0E94510820E030E0B4
S11305C044E353E40E94AE0720E030E040EA50E404
S11305D00E94010920E030E040EA50E40E943D0717
S11305E00E942008DC01CB0140E050E068E472E4A2
S11305F00E94940608950E94E0060895CF92DF9227
S1130600EF92FF920F931F93CF93DF93CDB7DEB793
S11306102B970FB6F894DEBF0FBECDBF8E010F5FD0
S11306201F4F802F0E94FF0681E00E94DC0180E7BB
S113063090E00E94AA022FEF87EA91E621508040C1
S11306409040E1F700C0000081E00E94DC018AE7ED
S113065090E00E94AA02C8010E94210788E890E065
S11306600E940B07B80180E090E00E949500C12C25
S1130670D12CE12CF12C81E00E94DC0182EA90E093
S11306800E94AA0200E010E013C0CE010B960E9463
S1130690F6008B858F3FC9F3E6E0F0E0EC0FFD1F19
S11306A0E00FF11F80838AE20E9474020F5F1F4FE4
S11306B00430110554F31A86BE016A5F7F4FCE01E0
S11306C001960E949009892BC9F581E00E94DC0102
S11306D082EB90E00E94AA0267E083E00E94C402D9
S11306E02FEF83E294EF215080409040E1F700C067
S11306F0000067E083E00E94C8028AE50E94D402F9
S11307002FEF83E294EF215080409040E1F700C046
S113071000000E94FB0261E081E00E945F002FEF75
S113072083E294EF215080409040E1F700C0000044
S113073081E00E9481000E94AC0054C02FEFE21AB5
S1130740F20A83E0E816F10464F181E00E94DC011E
S11307508FEB90E00E94AA0263E080E00E944500D3
S11307609FEF23E284EF915020408040E1F700C0E6
S1130770000063E080E00E94490060E081E00E94A4
S1130780C4029FEF23E284EF915020408040E1F7C0
S113079000C0000060E081E00E94C8020E94FE02E6
S11307A021C081E00E94DC019FEFC91AD90A21E02F
S11307B0C216D10429F487EC90E00E94AA0208C072
S11307C082E0C816D10421F488ED90E00E94AA02C8
S11307D09FEF27EA81E6915020408040E1F700C076
S11307E0000049CF2B960FB6F894DEBF0FBECDBFE5
S11307F0DF91CF911F910F91FF90EF90DF90CF90F9
S11308000895CF92DF92EF92FF920F931F93CF93AD
S1130810DF93CDB7DEB72B970FB6F894DEBF0FBECC
S1130820CDBF0E9412020E94BD0081E00E944D00D3
S11308300E94CC0267E083E00E94C00260E081E095
S11308400E94C00263E080E00E9441000E94EE0624
S113085081E00E94DC0180E790E00E94AA022FEF71
S113086087EA91E6215080409040E1F700C0000003
S113087081E00E94DC018AE790E00E94AA02CE0196
S113088001960E94210788E890E00E940B07BE01B0
S11308906F5F7F4F80E090E00E949500C12CD12CC7
S11308A0E12CF12C81E00E94DC0182EA90E00E94BC
S11308B0AA0200E010E013C0CE010B960E94F600DD
S11308C08B858F3FC9F3E6E0F0E0EC0FFD1FE00FEE
S11308D0F11F80838AE20E9474020F5F1F4F04306D
S11308E0110554F31A86BE016A5F7F4FCE0101964B
S11308F00E949009892BC9F581E00E94DC0182EBFA
S113090090E00E94AA0267E083E00E94C4022FEFF5
S113091083E294EF215080409040E1F700C0000052
S113092067E083E00E94C8028AE50E94D4022FEFA8
S113093083E294EF215080409040E1F700C0000032
S11309400E94FB0261E081E00E945F002FEF83E2DE
S113095094EF215080409040E1F700C0000081E016
S11309600E9481000E94AC0054C02FEFE21AF20AE8
S113097083E0E816F10464F181E00E94DC018FEB6E
S113098090E00E94AA0263E080E00E9445009FEF8D
S113099023E284EF915020408040E1F700C0000042
S11309A063E080E00E94490060E081E00E94C402AC
S11309B09FEF23E284EF915020408040E1F700C094
S11309C0000060E081E00E94C8020E94FE0221C093
S11309D081E00E94DC019FEFC91AD90A21E0C21606
S11309E0D10429F487EC90E00E94AA0208C082E0B6
S11309F0C816D10421F488ED90E00E94AA029FEF6A
S1130A0027EA81E6915020408040E1F700C00000D1
S1130A1049CF80E090E02B960FB6F894DEBF0FBE6E
S1130A20CDBFDF91CF911F910F91FF90EF90DF9099
S1130A30CF900895813019F130F08230E1F18330A4
S1130A4009F454C00895442371F0413009F068C09A
S1130A502AB381E090E002C0880F991F6A95E2F7FB
S1130A60822B8ABB08952AB381E090E002C0880FEC
S1130A70991F6A95E2F7809582238ABB08954423DF
S1130A8071F0413009F04CC027B381E090E002C01E
S1130A90880F991F6A95E2F7822B87BB089527B3C5
S1130AA081E090E002C0880F991F6A95E2F7809573
S1130AB0822387BB0895442369F0413089F524B328
S1130AC081E090E002C0880F991F6A95E2F7822BBB
S1130AD084BB089524B381E090E002C0880F991F7D
S1130AE06A95E2F78095822384BB0895442369F0D4
S1130AF04130B1F421B381E090E002C0880F991F26
S1130B006A95E2F7822B81BB089521B381E090E0DE
S1130B1002C0880F991F6A95E2F78095822381BBF2
S1130B200895843008F079C0433008F076C08130ED
S1130B3019F130F08230E1F1833009F454C00895A2
S1130B40442371F0413009F068C02BB381E090E098
S1130B5002C0880F991F6A95E2F7822B8BBB089518
S1130B602BB381E090E002C0880F991F6A95E2F7E9
S1130B70809582238BBB0895442371F0413009F0A2
S1130B804CC028B381E090E002C0880F991F6A9599
S1130B90E2F7822B88BB089528B381E090E002C07D
S1130BA0880F991F6A95E2F78095822388BB089580
S1130BB0442369F0413089F525B381E090E002C017
S1130BC0880F991F6A95E2F7822B85BB089525B398
S1130BD081E090E002C0880F991F6A95E2F7809542
S1130BE0822385BB0895442369F04130B1F422B3D4
S1130BF081E090E002C0880F991F6A95E2F7822B8A
S1130C0082BB089522B381E090E002C0880F991F4F
S1130C106A95E2F78095822382BB08958430C0F5FB
S1130C206830B0F54115510599F1813089F028F00B
S1130C308230C9F0833011F1089589B390E002C085
S1130C40959587956A95E2F78170FA0180830895F6
S1130C5086B390E002C0959587956A95E2F7817016
S1130C60FA018083089583B390E002C09595879537
S1130C706A95E2F78170FA018083089580B390E069
S1130C8002C0959587956A95E2F78170FA01808391
S1130C9008958430A8F5683098F5813089F028F0FB
S1130CA08230C9F0833011F108952BB381E090E0D4
S1130CB002C0880F991F6A95E2F7822B8BBB0895B7
S1130CC028B381E090E002C0880F991F6A95E2F78B
S1130CD0822B88BB089525B381E090E002C0880F81
S1130CE0991F6A95E2F7822B85BB089522B381E0B0
S1130CF090E002C0880F991F6A95E2F7822B82BBAD
S1130D0008958FB58E7F8FBD8FB582608FBD8EB5F0
S1130D1088608EBD8EB580618EBD8FB58F7B8FBD93
S1130D208FB580688FBD0895CF92DF92EF92FF92C6
S1130D30CF93DF93EC016A017B0120E030E048ECC3
S1130D4052E4C701B6010E94A907181694F19E0146
S1130D5040E050E060E970ED83E090E00E946E09AD
S1130D602150310937BD26BD66B577B56F5F7F4F1A
S1130D7080E090E00E944F08A70196010E940109BB
S1130D8020E030E048EC52E40E94AE0720E030E07E
S1130D9040E85FE30E943C070E9420087BBD6ABDD7
S1130DA08EB581608EBD8EB582608EBD8EB58B7F13
S1130DB08EBDDF91CF91FF90EF90DF90CF9008959B
S1130DC08EB58E7F8EBD8EB58D7F8EBD8EB58B7F9D
S1130DD08EBD1DBC1CBC1BBC1ABC08958BB18D7F81
S1130DE08BB987E689B98AB18B7F8AB986E880BDD9
S1130DF08AB188608AB98AB180618AB908958CB948
S1130E005D9BFECF0895009729F05F9BFECF2CB128
S1130E10FC01208308950F931F93CF93009729F427
S1130E200CC00E94FF06CF5F02C08C01C0E0F80135
S1130E30EC0FF11D80818111F4CFCF911F910F919F
S1130E400895EF92FF921F93CF93DF93009771F071
S1130E507C0110E0E701C10FD11DCE010E94030700
S1130E609881933211F01F5FF5CF1882DF91CF91F3
S1130E701F91FF90EF9008955058BB27AA270E9416
S1130E8054070C94C7080E94B90838F00E94C0089F
S1130E9020F039F49F3F19F426F40C94B6080EF4AC
S1130EA0E095E7FB0C94B008E92F0E94D80858F3AA
S1130EB0BA17620773078407950720F079F4A6F53B
S1130EC00C94FA080EF4E0950B2EBA2FA02D0B010A
S1130ED0B90190010C01CA01A0011124FF27591B7B
S1130EE099F0593F50F4503E68F11A16F040A22F81
S1130EF0232F342F4427585FF3CF469537952795F2
S1130F00A795F0405395C9F77EF41F16BA0B620BF0
S1130F10730B840BBAF09150A1F0FF0FBB1F661F37
S1130F20771F881FC2F70EC0BA0F621F731F841F7A
S1130F3048F4879577956795B795F7959E3F08F0A0
S1130F40B0CF9395880F08F09927EE0F9795879562
S1130F5008950E948C0808F481E008950E94C20755
S1130F600C94C7080E94C00858F00E94B90840F0C9
S1130F7029F45F3F29F00C94B00851110C94FB083C
S1130F800C94B6080E94D80868F39923B1F355234A
S1130F9091F3951B550BBB27AA2762177307840788
S1130FA038F09F5F5F4F220F331F441FAA1FA9F31E
S1130FB035D00E2E3AF0E0E832D091505040E6950C
S1130FC0001CCAF72BD0FE2F29D0660F771F881F6D
S1130FD0BB1F261737074807AB07B0E809F0BB0B60
S1130FE0802DBF01FF2793585F4F3AF09E3F510574
S1130FF078F00C94B0080C94FB085F3FE4F3983E3F
S1131000D4F3869577956795B795F7959F5FC9F75C
S1131010880F911D9695879597F90895E1E0660FDD
S1131020771F881FBB1F621773078407BA0720F056
S1131030621B730B840BBA0BEE1F88F7E0950895BF
S11310400E94E00888F09F5798F0B92F9927B7516C
S1131050B0F0E1F0660F771F881F991F1AF0BA9558
S1131060C9F714C0B13091F00E94FA08B1E00895B4
S11310700C94FA08672F782F8827B85F39F0B93FA6
S1131080CCF3869577956795B395D9F73EF490950B
S11310908095709561957F4F8F4F9F4F0895E89489
S11310A009C097FB3EF490958095709561957F4FAC
S11310B08F4F9F4F9923A9F0F92F96E9BB2793955A
S11310C0F695879577956795B795F111F8CFFAF46A
S11310D0BB0F11F460FF1BC06F5F7F4F8F4F9F4F9B
S11310E016C0882311F096E911C0772321F09EE8F9
S11310F0872F762F05C0662371F096E8862F70E05F
S113110060E02AF09A95660F771F881FDAF7880F38
S11311109695879597F90895990F0008550FAA0B8E
S1131120E0E8FEEF16161706E807F907C0F01216F6
S11311301306E407F50798F0621B730B840B950BF9
S113114039F40A2661F0232B242B252B21F408954E
S11311500A2609F4A140A6958FEF811D811D0895EB
S113116097F99F6780E870E060E008959FEF80EC56
S1131170089500240A9416161706180609060895F9
S113118000240A9412161306140605060895092E5F
S11311900394000C11F4882352F0BB0F40F4BF2BCE
S11311A011F460FF04C06F5F7F4F8F4F9F4F08950E
S11311B057FD9058440F551F59F05F3F71F0479504
S11311C0880F97FB991F61F09F3F79F087950895E9
S11311D0121613061406551FF2CF4695F1DF08C008
S11311E0161617061806991FF1CF86957105610525
S11311F008940895E894BB2766277727CB0197F9CD
S113120008950E9414090C94C7080E94B90838F084
S11312100E94C00820F0952311F00C94B0080C949F
S1131220B60811240C94FB080E94D80870F3959F0B
S1131230C1F3950F50E0551F629FF001729FBB27C9
S1131240F00DB11D639FAA27F00DB11DAA1F649F65
S11312506627B00DA11D661F829F2227B00DA11D18
S1131260621F739FB00DA11D621F839FA00D611D9E
S1131270221F749F3327A00D611D231F849F600DBF
S1131280211D822F762F6A2F11249F5750409AF0E8
S1131290F1F088234AF0EE0FFF1FBB1F661F771F74
S11312A0881F91505040A9F79E3F510580F00C943F
S11312B0B0080C94FB085F3FE4F3983ED4F38695A2
S11312C077956795B795F795E7959F5FC1F7FE2BDF
S11312D0880F911D9695879597F90895A1E21A2E86
S11312E0AA1BBB1BFD010DC0AA1FBB1FEE1FFF1FC6
S11312F0A217B307E407F50720F0A21BB30BE40B16
S1131300F50B661F771F881F991F1A9469F760955C
S11313107095809590959B01AC01BD01CF01089516
S1131320FB01DC018D91019080190110D9F3990B17
S10913300895F894FFCFBC
S11313363738392F3435362A3132332D43303D2B65
S1131346496E697420446F6E65005365742070613C
S11313567373776F72643A0050617373776F726454
S113136620736574207375636365737366756C6C3B
S11313767900456E7465722070617373776F726459
S11313863A00446F6F72206F70656E656421004C7D
S11313966F636B656421004F6E6520747269616CBE
S11313A620706173736564005365636F6E642074A3
S10F13B67269616C2070617373656400DF
S9030000FC
