S013000053656375726564486F6D652E73726563BD
S11300000C942A000C9447000C9447000C9447006D
S11300100C9447000C9447000C9447000C94470040
S11300200C9447000C9447000C9447000C94470030
S11300300C9447000C9447000C9447000C94470020
S11300400C9447000C9447000C9447000C94470010
S11300500C94470011241FBECFE5D8E0DEBFCDBF0E
S113006011E0A0E6B0E0EAE5F2E102C005900D92ED
S1130070A43EB107D9F722E0A4EEB1E001C01D927D
S1130080A439B207E1F70E94E2030C942B090C9403
S11300900000AC0120E030E00BC0DA01A20FB31F76
S11300A0EC91F0E0EF57FF4F90819C932F5F3F4F0F
S11300B02031310594F30895FC0181819581918368
S11300C09185958395859187858782819285928391
S11300D08287868196859683868783819785938395
S11300E0938597879781938787830895CF92DF922B
S11300F0FF920F931F93CF93DF93BC0140E050E036
S113010026C09A01220F331F220F331F8B01020FC7
S1130110131FF801F080E9012196C60FD71F9881BB
S1130120D9011296A60FB71F8C912D5F3F4F6B011B
S1130130C20ED31EF60120819F2598279227F8012D
S1130140908398839C93F60190834F5F5F4F443074
S11301505105BCF2DF91CF911F910F91FF90DF9079
S1130160CF900895CF93DF93EC0120E030E00CC0F2
S1130170FE01E20FF31FDB01A20FB31F9C9140812C
S1130180942790832F5F3F4F203131058CF3DF910B
S1130190CF910895FC0190E1A4EEB1E001900D929D
S11301A09A95E1F708950E94CA000895EF92FF928C
S11301B00F931F93CF93DF93CDB7DEB760970FB63E
S11301C0F894DEBF0FBECDBFFC017B0190E1DE01E0
S11301D0119601900D929A95E1F764EE71E0CE01CB
S11301E001960E94B20001E010E01BC0CE0101960E
S11301F00E944900CE0101960E945C00CE01019646
S11302000E947600B80162957295707F7627607FB0
S113021076276C517E4FCE0101960E94B2000F5F8B
S11302201F4F0A30110514F3CE0101960E944900B4
S1130230CE0101960E945C0064E872E0CE01019652
S11302400E94B20080E1FE013196D70101900D9227
S11302508A95E1F760960FB6F894DEBF0FBECDBF66
S1130260DF91CF911F910F91FF90EF90089581300E
S113027079F441E063E083E00E94E70441E062E056
S113028083E00E94E70441E066E083E00E94E70423
S113029008958130F9F4613019F0623061F015C0CD
S11302A041E063E083E00E945E0540E062E083E0B9
S11302B00E945E050AC040E063E083E00E945E05A0
S11302C041E062E083E00E945E0541E066E083E095
S11302D00E945E050895813029F440E066E083E0E1
S11302E00E945E05089541E064E081E00E94E70415
S11302F041E065E081E00E94E70441E066E081E0DE
S11303000E94E70441E067E081E00E94E70440E0E6
S113031063E082E00E94E70440E064E082E00E943F
S1130320E70440E065E082E00E94E70440E066E024
S113033082E00E94E70463E082E00E94160664E023
S113034082E00E94160665E082E00E94160666E0DE
S113035082E00E94160608956F927F928F929F9278
S1130360AF92BF92CF92DF92EF92FF920F931F93BF
S1130370CF93DF93CDB7DEB7A1970FB6F894DEBF66
S11303800FBECDBF009709F480C05C0181E08D8F62
S11303908E8F8F8F88A334E0398F25E02A8F96E0E3
S11303A09B8F87E08C8F82E08D8B8E8B8F8B888FD9
S11303B083E0898B3A8B2B8B9C8B80E1E0E6F0E029
S11303C0DE01119601900D928A95E1F78FEFF50108
S11303D08083812C56C0C82CD12CE9E1F0E0EC0FCD
S11303E0FD1FEC0DFD1D6080EDE1F0E0EC0FFD1F45
S11303F0EC0DFD1D708040E0662D872D0E945E058A
S113040010E037C0E12EF12CE1E1F0E0EC0FFD1F2C
S1130410EE0DFF1D0081E5E1F0E0EC0FFD1FEE0D98
S1130420FF1D9080AE014F5D5F4F602F892D0E94AC
S1130430DB0589A181111CC007C0AE014F5D5F4F70
S1130440602F892D0E94DB0589A18823B1F3EE0C6E
S1130450FF1CEE0CFF1C81E090E08C0F9D1FE80E4A
S1130460F91EF701EC0DFD1D8081F50180830DC09F
S11304701F5F143038F241E0662D872D0E945E051F
S11304808394F3E0F81508F0A6CFA1960FB6F8947C
S1130490DEBF0FBECDBFDF91CF911F910F91FF90B3
S11304A0EF90DF90CF90BF90AF909F908F907F9010
S11304B06F900895CF93C82F80FF06C041E064E099
S11304C080E00E945E0505C040E064E080E00E9498
S11304D05E05C1FF06C041E065E080E00E945E0564
S11304E005C040E065E080E00E945E05C2FF06C0F2
S11304F041E066E080E00E945E0505C040E066E001
S113050080E00E945E05C3FF06C041E067E080E032
S11305100E945E0505C040E067E080E00E945E0541
S1130520CF910895CF93C82F40E061E081E00E940D
S11305305E0540E062E081E00E945E058C2F8295BA
S11305408F700E945A0241E063E081E00E945E05E0
S11305508FE99FE00197F1F700C0000040E063E0FD
S113056081E00E945E058C2F0E945A0241E063E004
S113057081E00E945E058FE99FE00197F1F700C0DA
S1130580000040E063E081E00E945E05CF910895A1
S113059041E061E081E00E94E70441E062E081E043
S11305A00E94E70441E063E081E00E94E70441E047
S11305B064E080E00E94E70441E065E080E00E949E
S11305C0E70441E066E080E00E94E70441E067E080
S11305D080E00E94E7042FE785EB91E02150804002
S11305E09040E1F700C0000040E061E081E00E943B
S11305F05E0540E062E081E00E945E0582E00E94C8
S11306005A0241E063E081E00E945E058FE99FE0C9
S11306100197F1F700C0000040E063E081E00E9430
S11306205E0588E20E94920290EF9A95F1F78FE0BE
S11306300E94920220EF2A95F1F781E00E94920233
S11306408FE39FE10197F1F700C0000086E00E946C
S113065092020895CF93C82F41E061E081E00E94A7
S11306605E0540E062E081E00E945E058C2F829589
S11306708F700E945A0241E063E081E00E945E05AF
S11306808FE99FE00197F1F700C0000040E063E0CC
S113069081E00E945E058C2F0E945A0241E063E0D3
S11306A081E00E945E058FE99FE00197F1F700C0A9
S11306B0000040E063E081E00E945E05CF91089570
S11306C00F931F93CF93009729F40CC00E942A0321
S11306D0CF5F02C08C01C0E0F801EC0FF11D8081F6
S11306E08111F4CFCF911F910F91089541E00E94A1
S11306F0E704089541E00E945E05089540E00E94E9
S11307005E05089541E065E083E00E94E7040E94ED
S11307104E060895682F70E0665A7F4F072E000C2E
S1130720880B990B0E94D00720E030E044E353E4A7
S11307300E942D0720E030E040EA50E40E94800847
S113074020E030E040EA50E40E94BC060E949F078B
S1130750DC01CB0140E050E068E472E40E946106F1
S113076008950E94AD060895EF92FF920F931F9390
S1130770CF93DF93CDB7DEB760970FB6F894DEBFA3
S11307800FBECDBF7B018E010F5F1F4F20E1F8012B
S113079011922A95E9F744E050E0BC01C8010E9497
S11307A01C09B701C8010E94D60060960FB6F894E0
S11307B0DEBF0FBECDBFDF91CF911F910F91FF9090
S11307C0EF900895CF93DF93CDB7DEB7EA970FB6D6
S11307D0F894DEBF0FBECDBF80E1E0E7F0E0DE01BC
S11307E05B9601900D928A95E1F70E94C8020E94DF
S11307F0730181E00E9437010E94820367E083E075
S11308000E947603CE014B960E94D30081E00E94A1
S1130810920281E891E00E9460032FEF87EA91E65B
S1130820215080409040E1F700C0000081E00E9428
S113083092028BE891E00E94600300E010E013C094
S1130840CE018B960E94AC018BA58F3FC9F3E1E0EA
S1130850F0E0EC0FFD1FE00FF11F80838AE20E949D
S11308602A030F5F1F4F0430110554F31D82AE019C
S1130870455E5F4FBE01655F7F4FCE0101960E94CA
S1130880B40300E010E0C12CD12C81E00E9492025C
S113089089E991E00E946003E12CF12C14C0CE019F
S11308A08B960E94AC018BA58F3FC9F3E6E0F0E084
S11308B0EC0FFD1FEE0DFF1D80838AE20E942A03C8
S11308C0EFEFEE1AFE0AF4E0EF16F10444F31A8691
S11308D07E012BE2E20EF11C80E1F70111928A9570
S11308E0E9F7AE01455E5F4FB701CE0106960E945F
S11308F0B40340E150E0B701CE010B960E940F090A
S1130900892BB9F581E00E94920289EA91E00E9464
S1130910600367E083E00E947A03FFEF23E284EF41
S1130920F15020408040E1F700C0000067E083E020
S11309300E947E0361E081E00E9449019FEFE3E2AF
S1130940F4EF9150E040F040E1F700C0000081E096
S11309500E946B018AE50E948A032FEF83E294EFE1
S1130960215080409040E1F700C000000E94B10394
S11309702DC0EFEFCE1ADE0AF3E0CF16D10444F017
S113098081E00E94920286EB91E00E9460031EC007
S113099081E00E9492020F5F1F4F0130110529F47C
S11309A08EEB91E00E94600307C00230110521F430
S11309B08FEC91E00E9460032FEF87EA91E62150CB
S11309C080409040E1F700C000005FCFFFCF81304E
S11309D019F130F08230E1F1833009F454C0089504
S11309E0442371F0413009F068C02AB381E090E0FB
S11309F002C0880F991F6A95E2F7822B8ABB08957B
S1130A002AB381E090E002C0880F991F6A95E2F74B
S1130A10809582238ABB0895442371F0413009F004
S1130A204CC027B381E090E002C0880F991F6A95FB
S1130A30E2F7822B87BB089527B381E090E002C0E0
S1130A40880F991F6A95E2F78095822387BB0895E2
S1130A50442369F0413089F524B381E090E002C079
S1130A60880F991F6A95E2F7822B84BB089524B3FB
S1130A7081E090E002C0880F991F6A95E2F78095A3
S1130A80822384BB0895442369F04130B1F421B337
S1130A9081E090E002C0880F991F6A95E2F7822BEB
S1130AA081BB089521B381E090E002C0880F991FB3
S1130AB06A95E2F78095822381BB0895843008F01B
S1130AC079C0433008F076C0813019F130F08230BB
S1130AD0E1F1833009F454C00895442371F04130A6
S1130AE009F068C02BB381E090E002C0880F991F21
S1130AF06A95E2F7822B8BBB08952BB381E090E0DB
S1130B0002C0880F991F6A95E2F7809582238BBBF8
S1130B100895442371F0413009F04CC028B381E0BA
S1130B2090E002C0880F991F6A95E2F7822B88BB78
S1130B30089528B381E090E002C0880F991F6A9558
S1130B40E2F78095822388BB0895442369F04130FD
S1130B5089F525B381E090E002C0880F991F6A955A
S1130B60E2F7822B85BB089525B381E090E002C0B3
S1130B70880F991F6A95E2F78095822385BB0895B3
S1130B80442369F04130B1F422B381E090E002C023
S1130B90880F991F6A95E2F7822B82BB089522B3CE
S1130BA081E090E002C0880F991F6A95E2F7809572
S1130BB0822382BB08958430C0F56830B0F54115B6
S1130BC0510599F1813089F028F08230C9F08330E1
S1130BD011F1089589B390E002C0959587956A95BF
S1130BE0E2F78170FA018083089586B390E002C031
S1130BF0959587956A95E2F78170FA018083089547
S1130C0083B390E002C0959587956A95E2F7817069
S1130C10FA018083089580B390E002C0959587958A
S1130C206A95E2F78170FA01808308958430A8F50B
S1130C30683098F5813089F028F08230C9F083302B
S1130C4011F108952BB381E090E002C0880F991F41
S1130C506A95E2F7822B8BBB089528B381E090E07C
S1130C6002C0880F991F6A95E2F7822B88BB08950A
S1130C7025B381E090E002C0880F991F6A95E2F7DE
S1130C80822B85BB089522B381E090E002C0880FD7
S1130C90991F6A95E2F7822B82BB08958FB58E7FE8
S1130CA08FBD8FB582608FBD8EB588608EBD8EB5C9
S1130CB080618EBD8FB58F7B8FBD8FB580688FBDF2
S1130CC00895CF92DF92EF92FF92CF93DF93EC01DE
S1130CD06A017B0120E030E048EC52E4C701B60130
S1130CE00E942807181694F19E0140E050E060E944
S1130CF070ED83E090E00E94ED082150310937BD8A
S1130D0026BD66B577B56F5F7F4F80E090E00E94A7
S1130D10CE07A70196010E94800820E030E048EC4D
S1130D2052E40E942D0720E030E040E85FE30E9497
S1130D30BB060E949F077BBD6ABD8EB581608EBDD8
S1130D408EB582608EBD8EB58B7F8EBDDF91CF91C7
S1130D50FF90EF90DF90CF9008958EB58E7F8EBD7B
S1130D608EB58D7F8EBD8EB58B7F8EBD1DBC1CBC9C
S1130D701BBC1ABC08955058BB27AA270E94D3064F
S1130D800C9446080E94380838F00E943F0820F06E
S1130D9039F49F3F19F426F40C9435080EF4E095C9
S1130DA0E7FB0C942F08E92F0E94570858F3BA1751
S1130DB0620773078407950720F079F4A6F50C946D
S1130DC079080EF4E0950B2EBA2FA02D0B01B90172
S1130DD090010C01CA01A0011124FF27591B99F0AD
S1130DE0593F50F4503E68F11A16F040A22F232FB9
S1130DF0342F4427585FF3CF469537952795A79509
S1130E00F0405395C9F77EF41F16BA0B620B730BAF
S1130E10840BBAF09150A1F0FF0FBB1F661F771F20
S1130E20881FC2F70EC0BA0F621F731F841F48F4D5
S1130E30879577956795B795F7959E3F08F0B0CF5E
S1130E409395880F08F09927EE0F97958795089545
S1130E500E940B0808F481E008950E9441070C9455
S1130E6046080E943F0858F00E94380840F029F4D0
S1130E705F3F29F00C942F0851110C947A080C94BC
S1130E8035080E94570868F39923B1F3552391F369
S1130E90951B550BBB27AA2762177307840738F0E5
S1130EA09F5F5F4F220F331F441FAA1FA9F335D042
S1130EB00E2E3AF0E0E832D091505040E695001CF6
S1130EC0CAF72BD0FE2F29D0660F771F881FBB1FB0
S1130ED0261737074807AB07B0E809F0BB0B802D8E
S1130EE0BF01FF2793585F4F3AF09E3F510578F0BA
S1130EF00C942F080C947A085F3FE4F3983ED4F3E3
S1130F00869577956795B795F7959F5FC9F7880F8D
S1130F10911D9695879597F90895E1E0660F771FDF
S1130F20881FBB1F621773078407BA0720F0621B70
S1130F30730B840BBA0BEE1F88F7E09508950E949B
S1130F405F0888F09F5798F0B92F9927B751B0F0F0
S1130F50E1F0660F771F881F991F1AF0BA95C9F739
S1130F6014C0B13091F00E947908B1E008950C9456
S1130F707908672F782F8827B85F39F0B93FCCF309
S1130F80869577956795B395D9F73EF490958095B6
S1130F90709561957F4F8F4F9F4F0895E89409C0D6
S1130FA097FB3EF490958095709561957F4F8F4F98
S1130FB09F4F9923A9F0F92F96E9BB279395F695AE
S1130FC0879577956795B795F111F8CFFAF4BB0F2C
S1130FD011F460FF1BC06F5F7F4F8F4F9F4F16C090
S1130FE0882311F096E911C0772321F09EE8872F1A
S1130FF0762F05C0662371F096E8862F70E060E0D6
S11310002AF09A95660F771F881FDAF7880F96954E
S1131010879597F90895990F0008550FAA0BE0E8F2
S1131020FEEF16161706E807F907C0F012161306A6
S1131030E407F50798F0621B730B840B950B39F4E6
S11310400A2661F0232B242B252B21F408950A264C
S113105009F4A140A6958FEF811D811D089597F98C
S11310609F6780E870E060E008959FEF80EC08954A
S113107000240A9416161706180609060895002473
S11310800A9412161306140605060895092E0394ED
S1131090000C11F4882352F0BB0F40F4BF2B11F461
S11310A060FF04C06F5F7F4F8F4F9F4F089557FDC0
S11310B09058440F551F59F05F3F71F04795880FC2
S11310C097FB991F61F09F3F79F087950895121659
S11310D013061406551FF2CF4695F1DF08C0161605
S11310E017061806991FF1CF8695710561050894B6
S11310F00895E894BB2766277727CB0197F90895CD
S11311000E9493080C9446080E94380838F00E9404
S11311103F0820F0952311F00C942F080C94350807
S113112011240C947A080E94570870F3959FC1F318
S1131130950F50E0551F629FF001729FBB27F00D81
S1131140B11D639FAA27F00DB11DAA1F649F6627D6
S1131150B00DA11D661F829F2227B00DA11D621F25
S1131160739FB00DA11D621F839FA00D611D221FDF
S1131170749F3327A00D611D231F849F600D211DC3
S1131180822F762F6A2F11249F5750409AF0F1F046
S113119088234AF0EE0FFF1FBB1F661F771F881FAF
S11311A091505040A9F79E3F510580F00C942F08B0
S11311B00C947A085F3FE4F3983ED4F386957795D0
S11311C06795B795F795E7959F5FC1F7FE2B880F55
S11311D0911D9695879597F90895A1E21A2EAA1B59
S11311E0BB1BFD010DC0AA1FBB1FEE1FFF1FA217D3
S11311F0B307E407F50720F0A21BB30BE40BF50BD0
S1131200661F771F881F991F1A9469F76095709558
S1131210809590959B01AC01BD01CF010895FB0120
S1131220DC0104C08D910190801921F4415050409B
S1131230C8F7881B990B0895FB01DC01415050400D
S113124048F001900D920020C9F701C01D92415051
S10D12505040E0F70895F894FFCF32
S113125A3738392F3435362A3132332D43303D2B42
S113126A31323334353637383930414243444546CE
S113127A00637C777BF26B6FC53001672BFED7ABBB
S113128A76000000000000000000000000000000DA
S113129A0000000000000000000000000000000040
S11312AA0000000000000000000000000000000030
S11312BA0000000000000000000000000000000020
S11312CA0000000000000000000000000000000010
S11312DA0000000000000000000000000000000000
S11312EA00000000000000000000000000000000F0
S11312FA00000000000000000000000000000000E0
S113130A00000000000000000000000000000000CF
S113131A00000000000000000000000000000000BF
S113132A00000000000000000000000000000000AF
S113133A000000000000000000000000000000009F
S113134A000000000000000000000000000000008F
S113135A000000000000000000000000000000007F
S113136A000000000000000000000000000000006F
S113137A00496E697420446F6E6500536574207069
S113138A617373776F72643A00456E746572207084
S113139A617373776F72643A00446F6F72206F706F
S11313AA656E656421004C6F636B656421004F6E42
S11313BA6520747269616C2070617373656400538B
S11313CA65636F6E6420747269616C2070617373F3
S10713DA6564000042
S9030000FC
